{
    "_format": "hh-sol-artifact-1",
    "contractName": "NFTMarketplace",
    "sourceName": "contracts/NFTMarketplace.sol",
    "abi": [
        {
            "inputs": [],
            "name": "NotApproved",
            "type": "error"
        },
        {
            "anonymous": false,
            "inputs": [
                {
                    "indexed": true,
                    "internalType": "address",
                    "name": "buyer",
                    "type": "address"
                },
                {
                    "indexed": true,
                    "internalType": "address",
                    "name": "nftAddress",
                    "type": "address"
                },
                {
                    "indexed": false,
                    "internalType": "uint256",
                    "name": "price",
                    "type": "uint256"
                },
                {
                    "indexed": false,
                    "internalType": "uint256",
                    "name": "fraction",
                    "type": "uint256"
                }
            ],
            "name": "LogItemBought",
            "type": "event"
        },
        {
            "anonymous": false,
            "inputs": [
                {
                    "indexed": true,
                    "internalType": "address",
                    "name": "seller",
                    "type": "address"
                },
                {
                    "indexed": true,
                    "internalType": "address",
                    "name": "nftAddress",
                    "type": "address"
                }
            ],
            "name": "LogItemCanceled",
            "type": "event"
        },
        {
            "anonymous": false,
            "inputs": [
                {
                    "indexed": true,
                    "internalType": "address",
                    "name": "seller",
                    "type": "address"
                },
                {
                    "indexed": true,
                    "internalType": "address",
                    "name": "nftAddress",
                    "type": "address"
                },
                {
                    "indexed": false,
                    "internalType": "uint256",
                    "name": "price",
                    "type": "uint256"
                }
            ],
            "name": "LogItemListed",
            "type": "event"
        },
        {
            "anonymous": false,
            "inputs": [
                {
                    "indexed": true,
                    "internalType": "address",
                    "name": "buyer",
                    "type": "address"
                },
                {
                    "indexed": true,
                    "internalType": "address",
                    "name": "nftAddress",
                    "type": "address"
                },
                {
                    "indexed": false,
                    "internalType": "uint256",
                    "name": "price",
                    "type": "uint256"
                }
            ],
            "name": "LogItemUpdated",
            "type": "event"
        },
        {
            "inputs": [],
            "name": "allListings",
            "outputs": [
                {
                    "internalType": "address[]",
                    "name": "",
                    "type": "address[]"
                }
            ],
            "stateMutability": "view",
            "type": "function"
        },
        {
            "inputs": [
                {
                    "internalType": "uint256",
                    "name": "",
                    "type": "uint256"
                }
            ],
            "name": "allNFTs",
            "outputs": [
                {
                    "internalType": "address",
                    "name": "",
                    "type": "address"
                }
            ],
            "stateMutability": "view",
            "type": "function"
        },
        {
            "inputs": [
                {
                    "internalType": "address",
                    "name": "nftAddress",
                    "type": "address"
                },
                {
                    "internalType": "uint256",
                    "name": "fraction",
                    "type": "uint256"
                }
            ],
            "name": "buyItem",
            "outputs": [],
            "stateMutability": "payable",
            "type": "function"
        },
        {
            "inputs": [
                {
                    "internalType": "address",
                    "name": "nftAddress",
                    "type": "address"
                }
            ],
            "name": "cancelListing",
            "outputs": [],
            "stateMutability": "nonpayable",
            "type": "function"
        },
        {
            "inputs": [
                {
                    "internalType": "address",
                    "name": "nftAddress",
                    "type": "address"
                }
            ],
            "name": "getListing",
            "outputs": [
                {
                    "components": [
                        {
                            "internalType": "uint256",
                            "name": "price",
                            "type": "uint256"
                        },
                        {
                            "internalType": "address",
                            "name": "seller",
                            "type": "address"
                        },
                        {
                            "internalType": "uint256",
                            "name": "amount",
                            "type": "uint256"
                        }
                    ],
                    "internalType": "struct NFTMarketplace.Listing",
                    "name": "",
                    "type": "tuple"
                }
            ],
            "stateMutability": "view",
            "type": "function"
        },
        {
            "inputs": [
                {
                    "internalType": "address",
                    "name": "seller",
                    "type": "address"
                }
            ],
            "name": "getProceeds",
            "outputs": [
                {
                    "internalType": "uint256",
                    "name": "",
                    "type": "uint256"
                }
            ],
            "stateMutability": "view",
            "type": "function"
        },
        {
            "inputs": [
                {
                    "internalType": "address",
                    "name": "nftAddress",
                    "type": "address"
                },
                {
                    "internalType": "address",
                    "name": "owner",
                    "type": "address"
                },
                {
                    "internalType": "address",
                    "name": "spender",
                    "type": "address"
                },
                {
                    "internalType": "uint256",
                    "name": "amount",
                    "type": "uint256"
                },
                {
                    "internalType": "uint256",
                    "name": "deadline",
                    "type": "uint256"
                },
                {
                    "internalType": "uint256",
                    "name": "price",
                    "type": "uint256"
                },
                {
                    "internalType": "uint8",
                    "name": "v",
                    "type": "uint8"
                },
                {
                    "internalType": "bytes32",
                    "name": "r",
                    "type": "bytes32"
                },
                {
                    "internalType": "bytes32",
                    "name": "s",
                    "type": "bytes32"
                }
            ],
            "name": "listItemWithPermit",
            "outputs": [],
            "stateMutability": "nonpayable",
            "type": "function"
        },
        {
            "inputs": [],
            "name": "numListings",
            "outputs": [
                {
                    "internalType": "uint256",
                    "name": "",
                    "type": "uint256"
                }
            ],
            "stateMutability": "view",
            "type": "function"
        },
        {
            "inputs": [
                {
                    "internalType": "address",
                    "name": "nftAddress",
                    "type": "address"
                },
                {
                    "internalType": "uint256",
                    "name": "newPrice",
                    "type": "uint256"
                },
                {
                    "internalType": "uint256",
                    "name": "amount",
                    "type": "uint256"
                },
                {
                    "internalType": "uint256",
                    "name": "deadline",
                    "type": "uint256"
                },
                {
                    "internalType": "uint8",
                    "name": "v",
                    "type": "uint8"
                },
                {
                    "internalType": "bytes32",
                    "name": "r",
                    "type": "bytes32"
                },
                {
                    "internalType": "bytes32",
                    "name": "s",
                    "type": "bytes32"
                }
            ],
            "name": "updateListing",
            "outputs": [],
            "stateMutability": "nonpayable",
            "type": "function"
        },
        {
            "inputs": [],
            "name": "withdrawProceeds",
            "outputs": [],
            "stateMutability": "nonpayable",
            "type": "function"
        }
    ],
    "bytecode": "0x608060405234801561001057600080fd5b506120d3806100206000396000f3fe6080604052600436106100915760003560e01c80639f37092a116100595780639f37092a1461017b578063bf162d6714610197578063c08f3888146101d4578063d87c5f7a146101fd578063d90cef371461022657610091565b8063084af0b21461009657806330cfeda9146100d35780634724da6f146101105780639038e6931461013957806390af04c114610150575b600080fd5b3480156100a257600080fd5b506100bd60048036038101906100b891906115ff565b610251565b6040516100ca9190611696565b60405180910390f35b3480156100df57600080fd5b506100fa60048036038101906100f591906115ff565b610314565b60405161010791906116c0565b60405180910390f35b34801561011c57600080fd5b50610137600480360381019061013291906115ff565b61035d565b005b34801561014557600080fd5b5061014e610609565b005b34801561015c57600080fd5b5061016561079a565b60405161017291906116c0565b60405180910390f35b61019560048036038101906101909190611707565b6107a3565b005b3480156101a357600080fd5b506101be60048036038101906101b99190611747565b610bd3565b6040516101cb9190611783565b60405180910390f35b3480156101e057600080fd5b506101fb60048036038101906101f6919061180d565b610c12565b005b34801561020957600080fd5b50610224600480360381019061021f91906118d7565b61100c565b005b34801561023257600080fd5b5061023b61144b565b6040516102489190611a28565b60405180910390f35b610259611565565b600260008373ffffffffffffffffffffffffffffffffffffffff1673ffffffffffffffffffffffffffffffffffffffff168152602001908152602001600020604051806060016040529081600082015481526020016001820160009054906101000a900473ffffffffffffffffffffffffffffffffffffffff1673ffffffffffffffffffffffffffffffffffffffff1673ffffffffffffffffffffffffffffffffffffffff1681526020016002820154815250509050919050565b6000600360008373ffffffffffffffffffffffffffffffffffffffff1673ffffffffffffffffffffffffffffffffffffffff168152602001908152602001600020549050919050565b806103666114d9565b600082905060008173ffffffffffffffffffffffffffffffffffffffff166370a08231846040518263ffffffff1660e01b81526004016103a69190611783565b602060405180830381865afa1580156103c3573d6000803e3d6000fd5b505050506040513d601f19601f820116820180604052508101906103e79190611a5f565b11610427576040517f08c379a000000000000000000000000000000000000000000000000000000000815260040161041e90611ae9565b60405180910390fd5b836000600260008373ffffffffffffffffffffffffffffffffffffffff1673ffffffffffffffffffffffffffffffffffffffff168152602001908152602001600020604051806060016040529081600082015481526020016001820160009054906101000a900473ffffffffffffffffffffffffffffffffffffffff1673ffffffffffffffffffffffffffffffffffffffff1673ffffffffffffffffffffffffffffffffffffffff16815260200160028201548152505090506000816000015111610527576040517f08c379a000000000000000000000000000000000000000000000000000000000815260040161051e90611b55565b60405180910390fd5b600260008773ffffffffffffffffffffffffffffffffffffffff1673ffffffffffffffffffffffffffffffffffffffff1681526020019081526020016000206000808201600090556001820160006101000a81549073ffffffffffffffffffffffffffffffffffffffff0219169055600282016000905550508573ffffffffffffffffffffffffffffffffffffffff166105bf6114d9565b73ffffffffffffffffffffffffffffffffffffffff167fc9669b8a48512518c3136892d2cd2ed45b7b7aa8190bfc0a3750292f3583906560405160405180910390a3505050505050565b6000600360006106176114d9565b73ffffffffffffffffffffffffffffffffffffffff1673ffffffffffffffffffffffffffffffffffffffff16815260200190815260200160002054905060008111610697576040517f08c379a000000000000000000000000000000000000000000000000000000000815260040161068e90611bc1565b60405180910390fd5b6000600360006106a56114d9565b73ffffffffffffffffffffffffffffffffffffffff1673ffffffffffffffffffffffffffffffffffffffff1681526020019081526020016000208190555060006106ed6114d9565b73ffffffffffffffffffffffffffffffffffffffff168260405161071090611c12565b60006040518083038185875af1925050503d806000811461074d576040519150601f19603f3d011682016040523d82523d6000602084013e610752565b606091505b5050905080610796576040517f08c379a000000000000000000000000000000000000000000000000000000000815260040161078d90611c73565b60405180910390fd5b5050565b60008054905090565b816000600260008373ffffffffffffffffffffffffffffffffffffffff1673ffffffffffffffffffffffffffffffffffffffff168152602001908152602001600020604051806060016040529081600082015481526020016001820160009054906101000a900473ffffffffffffffffffffffffffffffffffffffff1673ffffffffffffffffffffffffffffffffffffffff1673ffffffffffffffffffffffffffffffffffffffff168152602001600282015481525050905060008160000151116108a3576040517f08c379a000000000000000000000000000000000000000000000000000000000815260040161089a90611b55565b60405180910390fd5b6000600260008673ffffffffffffffffffffffffffffffffffffffff1673ffffffffffffffffffffffffffffffffffffffff168152602001908152602001600020604051806060016040529081600082015481526020016001820160009054906101000a900473ffffffffffffffffffffffffffffffffffffffff1673ffffffffffffffffffffffffffffffffffffffff1673ffffffffffffffffffffffffffffffffffffffff168152602001600282015481525050905080600001513410156109a2576040517f08c379a000000000000000000000000000000000000000000000000000000000815260040161099990611cdf565b60405180910390fd5b83600260008773ffffffffffffffffffffffffffffffffffffffff1673ffffffffffffffffffffffffffffffffffffffff16815260200190815260200160002060020160008282546109f49190611d2e565b925050819055503460036000836020015173ffffffffffffffffffffffffffffffffffffffff1673ffffffffffffffffffffffffffffffffffffffff1681526020019081526020016000206000828254610a4e9190611d62565b92505081905550600260008673ffffffffffffffffffffffffffffffffffffffff1673ffffffffffffffffffffffffffffffffffffffff1681526020019081526020016000206000808201600090556001820160006101000a81549073ffffffffffffffffffffffffffffffffffffffff0219169055600282016000905550508473ffffffffffffffffffffffffffffffffffffffff166323b872dd8260200151610af76114d9565b876040518463ffffffff1660e01b8152600401610b1693929190611d96565b6020604051808303816000875af1158015610b35573d6000803e3d6000fd5b505050506040513d601f19601f82011682018060405250810190610b599190611e05565b508473ffffffffffffffffffffffffffffffffffffffff16610b796114d9565b73ffffffffffffffffffffffffffffffffffffffff167f4e4294ab7366efb224569d5817c1b3959188f54db37c216798e96643ca3d034f836000015187604051610bc4929190611e32565b60405180910390a35050505050565b60018181548110610be357600080fd5b906000526020600020016000915054906101000a900473ffffffffffffffffffffffffffffffffffffffff1681565b886000600260008373ffffffffffffffffffffffffffffffffffffffff1673ffffffffffffffffffffffffffffffffffffffff168152602001908152602001600020604051806060016040529081600082015481526020016001820160009054906101000a900473ffffffffffffffffffffffffffffffffffffffff1673ffffffffffffffffffffffffffffffffffffffff1673ffffffffffffffffffffffffffffffffffffffff16815260200160028201548152505090506000816000015114610d12576040517f08c379a0000000000000000000000000000000000000000000000000000000008152600401610d0990611ea7565b60405180910390fd5b60008b90508073ffffffffffffffffffffffffffffffffffffffff1663d505accf8c8c8c8c8b8b8b6040518863ffffffff1660e01b8152600401610d5c9796959493929190611ee5565b600060405180830381600087803b158015610d7657600080fd5b505af1158015610d8a573d6000803e3d6000fd5b50505050888173ffffffffffffffffffffffffffffffffffffffff1663dd62ed3e8d8d6040518363ffffffff1660e01b8152600401610dca929190611f54565b602060405180830381865afa158015610de7573d6000803e3d6000fd5b505050506040513d601f19601f82011682018060405250810190610e0b9190611a5f565b1015610e43576040517fc19f17a900000000000000000000000000000000000000000000000000000000815260040160405180910390fd5b6040518060600160405280888152602001610e5c6114d9565b73ffffffffffffffffffffffffffffffffffffffff1681526020018a815250600260008e73ffffffffffffffffffffffffffffffffffffffff1673ffffffffffffffffffffffffffffffffffffffff1681526020019081526020016000206000820151816000015560208201518160010160006101000a81548173ffffffffffffffffffffffffffffffffffffffff021916908373ffffffffffffffffffffffffffffffffffffffff1602179055506040820151816002015590505060018c9080600181540180825580915050600190039060005260206000200160009091909190916101000a81548173ffffffffffffffffffffffffffffffffffffffff021916908373ffffffffffffffffffffffffffffffffffffffff1602179055508b73ffffffffffffffffffffffffffffffffffffffff16610f9a6114d9565b73ffffffffffffffffffffffffffffffffffffffff167ff3f0bb188e969a2f3f035c0aa4309dc7801440971970e4e18f11afb37a72d01689604051610fdf91906116c0565b60405180910390a3600080815480929190610ff990611f7d565b9190505550505050505050505050505050565b866110156114d9565b600082905060008173ffffffffffffffffffffffffffffffffffffffff166370a08231846040518263ffffffff1660e01b81526004016110559190611783565b602060405180830381865afa158015611072573d6000803e3d6000fd5b505050506040513d601f19601f820116820180604052508101906110969190611a5f565b116110d6576040517f08c379a00000000000000000000000000000000000000000000000000000000081526004016110cd90611ae9565b60405180910390fd5b896000600260008373ffffffffffffffffffffffffffffffffffffffff1673ffffffffffffffffffffffffffffffffffffffff168152602001908152602001600020604051806060016040529081600082015481526020016001820160009054906101000a900473ffffffffffffffffffffffffffffffffffffffff1673ffffffffffffffffffffffffffffffffffffffff1673ffffffffffffffffffffffffffffffffffffffff168152602001600282015481525050905060008160000151116111d6576040517f08c379a00000000000000000000000000000000000000000000000000000000081526004016111cd90611b55565b60405180910390fd5b60006111e96111e36114d9565b8e6114e1565b9050808b111561122e576040517f08c379a000000000000000000000000000000000000000000000000000000000815260040161122590612011565b60405180910390fd5b60008c11611271576040517f08c379a00000000000000000000000000000000000000000000000000000000081526004016112689061207d565b60405180910390fd5b6000600260008f73ffffffffffffffffffffffffffffffffffffffff1673ffffffffffffffffffffffffffffffffffffffff16815260200190815260200160002090508b8e73ffffffffffffffffffffffffffffffffffffffff1663dd62ed3e6112d96114d9565b306040518363ffffffff1660e01b81526004016112f7929190611f54565b602060405180830381865afa158015611314573d6000803e3d6000fd5b505050506040513d601f19601f820116820180604052508101906113389190611a5f565b10156113bd578d73ffffffffffffffffffffffffffffffffffffffff1663d505accf6113626114d9565b308f8f8f8f8f6040518863ffffffff1660e01b815260040161138a9796959493929190611ee5565b600060405180830381600087803b1580156113a457600080fd5b505af11580156113b8573d6000803e3d6000fd5b505050505b8c81600001819055508b81600201819055508d73ffffffffffffffffffffffffffffffffffffffff166113ee6114d9565b73ffffffffffffffffffffffffffffffffffffffff167f1fd00044d7bd9e4c4e8b3401a7212b7681ecd92b15cdebde83136d11f03ac0e88f60405161143391906116c0565b60405180910390a35050505050505050505050505050565b606060018054806020026020016040519081016040528092919081815260200182805480156114cf57602002820191906000526020600020905b8160009054906101000a900473ffffffffffffffffffffffffffffffffffffffff1673ffffffffffffffffffffffffffffffffffffffff1681526020019060010190808311611485575b5050505050905090565b600033905090565b60008173ffffffffffffffffffffffffffffffffffffffff166370a08231846040518263ffffffff1660e01b815260040161151c9190611783565b602060405180830381865afa158015611539573d6000803e3d6000fd5b505050506040513d601f19601f8201168201806040525081019061155d9190611a5f565b905092915050565b604051806060016040528060008152602001600073ffffffffffffffffffffffffffffffffffffffff168152602001600081525090565b600080fd5b600073ffffffffffffffffffffffffffffffffffffffff82169050919050565b60006115cc826115a1565b9050919050565b6115dc816115c1565b81146115e757600080fd5b50565b6000813590506115f9816115d3565b92915050565b6000602082840312156116155761161461159c565b5b6000611623848285016115ea565b91505092915050565b6000819050919050565b61163f8161162c565b82525050565b61164e816115c1565b82525050565b60608201600082015161166a6000850182611636565b50602082015161167d6020850182611645565b5060408201516116906040850182611636565b50505050565b60006060820190506116ab6000830184611654565b92915050565b6116ba8161162c565b82525050565b60006020820190506116d560008301846116b1565b92915050565b6116e48161162c565b81146116ef57600080fd5b50565b600081359050611701816116db565b92915050565b6000806040838503121561171e5761171d61159c565b5b600061172c858286016115ea565b925050602061173d858286016116f2565b9150509250929050565b60006020828403121561175d5761175c61159c565b5b600061176b848285016116f2565b91505092915050565b61177d816115c1565b82525050565b60006020820190506117986000830184611774565b92915050565b600060ff82169050919050565b6117b48161179e565b81146117bf57600080fd5b50565b6000813590506117d1816117ab565b92915050565b6000819050919050565b6117ea816117d7565b81146117f557600080fd5b50565b600081359050611807816117e1565b92915050565b60008060008060008060008060006101208a8c0312156118305761182f61159c565b5b600061183e8c828d016115ea565b995050602061184f8c828d016115ea565b98505060406118608c828d016115ea565b97505060606118718c828d016116f2565b96505060806118828c828d016116f2565b95505060a06118938c828d016116f2565b94505060c06118a48c828d016117c2565b93505060e06118b58c828d016117f8565b9250506101006118c78c828d016117f8565b9150509295985092959850929598565b600080600080600080600060e0888a0312156118f6576118f561159c565b5b60006119048a828b016115ea565b97505060206119158a828b016116f2565b96505060406119268a828b016116f2565b95505060606119378a828b016116f2565b94505060806119488a828b016117c2565b93505060a06119598a828b016117f8565b92505060c061196a8a828b016117f8565b91505092959891949750929550565b600081519050919050565b600082825260208201905092915050565b6000819050602082019050919050565b60006119b18383611645565b60208301905092915050565b6000602082019050919050565b60006119d582611979565b6119df8185611984565b93506119ea83611995565b8060005b83811015611a1b578151611a0288826119a5565b9750611a0d836119bd565b9250506001810190506119ee565b5085935050505092915050565b60006020820190508181036000830152611a4281846119ca565b905092915050565b600081519050611a59816116db565b92915050565b600060208284031215611a7557611a7461159c565b5b6000611a8384828501611a4a565b91505092915050565b600082825260208201905092915050565b7f4e6f74206f776e65720000000000000000000000000000000000000000000000600082015250565b6000611ad3600983611a8c565b9150611ade82611a9d565b602082019050919050565b60006020820190508181036000830152611b0281611ac6565b9050919050565b7f4e6f74204c697374656400000000000000000000000000000000000000000000600082015250565b6000611b3f600a83611a8c565b9150611b4a82611b09565b602082019050919050565b60006020820190508181036000830152611b6e81611b32565b9050919050565b7f4e6f2070726f6365656473000000000000000000000000000000000000000000600082015250565b6000611bab600b83611a8c565b9150611bb682611b75565b602082019050919050565b60006020820190508181036000830152611bda81611b9e565b9050919050565b600081905092915050565b50565b6000611bfc600083611be1565b9150611c0782611bec565b600082019050919050565b6000611c1d82611bef565b9150819050919050565b7f5472616e73666572206661696c65640000000000000000000000000000000000600082015250565b6000611c5d600f83611a8c565b9150611c6882611c27565b602082019050919050565b60006020820190508181036000830152611c8c81611c50565b9050919050565b7f5072696365206e6f74206d657400000000000000000000000000000000000000600082015250565b6000611cc9600d83611a8c565b9150611cd482611c93565b602082019050919050565b60006020820190508181036000830152611cf881611cbc565b9050919050565b7f4e487b7100000000000000000000000000000000000000000000000000000000600052601160045260246000fd5b6000611d398261162c565b9150611d448361162c565b9250828203905081811115611d5c57611d5b611cff565b5b92915050565b6000611d6d8261162c565b9150611d788361162c565b9250828201905080821115611d9057611d8f611cff565b5b92915050565b6000606082019050611dab6000830186611774565b611db86020830185611774565b611dc560408301846116b1565b949350505050565b60008115159050919050565b611de281611dcd565b8114611ded57600080fd5b50565b600081519050611dff81611dd9565b92915050565b600060208284031215611e1b57611e1a61159c565b5b6000611e2984828501611df0565b91505092915050565b6000604082019050611e4760008301856116b1565b611e5460208301846116b1565b9392505050565b7f416c7265616479204c6973746564000000000000000000000000000000000000600082015250565b6000611e91600e83611a8c565b9150611e9c82611e5b565b602082019050919050565b60006020820190508181036000830152611ec081611e84565b9050919050565b611ed08161179e565b82525050565b611edf816117d7565b82525050565b600060e082019050611efa600083018a611774565b611f076020830189611774565b611f1460408301886116b1565b611f2160608301876116b1565b611f2e6080830186611ec7565b611f3b60a0830185611ed6565b611f4860c0830184611ed6565b98975050505050505050565b6000604082019050611f696000830185611774565b611f766020830184611774565b9392505050565b6000611f888261162c565b91507fffffffffffffffffffffffffffffffffffffffffffffffffffffffffffffffff8203611fba57611fb9611cff565b5b600182019050919050565b7f596f7520646f6e277420686f6c6420656e6f7567680000000000000000000000600082015250565b6000611ffb601583611a8c565b915061200682611fc5565b602082019050919050565b6000602082019050818103600083015261202a81611fee565b9050919050565b7f5072696365206d7573742062652061626f7665207a65726f0000000000000000600082015250565b6000612067601883611a8c565b915061207282612031565b602082019050919050565b600060208201905081810360008301526120968161205a565b905091905056fea26469706673582212205d92ccc53371a551dc30247dd1be4c348656e00d866b3258167aa0c1111e72a464736f6c63430008130033",
    "linkReferences": {},
    "deployedLinkReferences": {}
}